{
  "contractName": "KittuToken",
  "abi": [
    {
      "inputs": [
        {
          "internalType": "uint256",
          "name": "_totalsupply",
          "type": "uint256"
        }
      ],
      "stateMutability": "nonpayable",
      "type": "constructor"
    },
    {
      "inputs": [
        {
          "internalType": "address",
          "name": "",
          "type": "address"
        }
      ],
      "name": "balanceOf",
      "outputs": [
        {
          "internalType": "uint256",
          "name": "",
          "type": "uint256"
        }
      ],
      "stateMutability": "view",
      "type": "function",
      "constant": true
    },
    {
      "inputs": [],
      "name": "tokenName",
      "outputs": [
        {
          "internalType": "string",
          "name": "",
          "type": "string"
        }
      ],
      "stateMutability": "view",
      "type": "function",
      "constant": true
    },
    {
      "inputs": [],
      "name": "totalSupply",
      "outputs": [
        {
          "internalType": "uint256",
          "name": "",
          "type": "uint256"
        }
      ],
      "stateMutability": "view",
      "type": "function",
      "constant": true
    },
    {
      "inputs": [],
      "name": "name",
      "outputs": [
        {
          "internalType": "string",
          "name": "",
          "type": "string"
        }
      ],
      "stateMutability": "view",
      "type": "function",
      "constant": true
    },
    {
      "inputs": [],
      "name": "symbol",
      "outputs": [
        {
          "internalType": "string",
          "name": "",
          "type": "string"
        }
      ],
      "stateMutability": "pure",
      "type": "function",
      "constant": true
    },
    {
      "inputs": [
        {
          "internalType": "address",
          "name": "_to",
          "type": "address"
        },
        {
          "internalType": "uint256",
          "name": "_value",
          "type": "uint256"
        }
      ],
      "name": "transfer",
      "outputs": [
        {
          "internalType": "bool",
          "name": "success",
          "type": "bool"
        }
      ],
      "stateMutability": "nonpayable",
      "type": "function"
    }
  ],
  "bytecode": "0x60806040526040518060400160405280600581526020017f4b697474750000000000000000000000000000000000000000000000000000008152506001908051906020019061004f9291906100d1565b5034801561005c57600080fd5b506040516109c83803806109c8833981810160405281019061007e91906101af565b600054600260003373ffffffffffffffffffffffffffffffffffffffff1673ffffffffffffffffffffffffffffffffffffffff16815260200190815260200160002081905550806000819055505061023d565b8280546100dd9061020b565b90600052602060002090601f0160209004810192826100ff5760008555610146565b82601f1061011857805160ff1916838001178555610146565b82800160010185558215610146579182015b8281111561014557825182559160200191906001019061012a565b5b5090506101539190610157565b5090565b5b80821115610170576000816000905550600101610158565b5090565b600080fd5b6000819050919050565b61018c81610179565b811461019757600080fd5b50565b6000815190506101a981610183565b92915050565b6000602082840312156101c5576101c4610174565b5b60006101d38482850161019a565b91505092915050565b7f4e487b7100000000000000000000000000000000000000000000000000000000600052602260045260246000fd5b6000600282049050600182168061022357607f821691505b60208210811415610237576102366101dc565b5b50919050565b61077c8061024c6000396000f3fe608060405234801561001057600080fd5b50600436106100625760003560e01c806306fdde031461006757806318160ddd146100855780636c02a931146100a357806370a08231146100c157806395d89b41146100f1578063a9059cbb1461010f575b600080fd5b61006f61013f565b60405161007c91906104a4565b60405180910390f35b61008d6101d1565b60405161009a91906104df565b60405180910390f35b6100ab6101d7565b6040516100b891906104a4565b60405180910390f35b6100db60048036038101906100d6919061055d565b610265565b6040516100e891906104df565b60405180910390f35b6100f961027d565b60405161010691906104a4565b60405180910390f35b610129600480360381019061012491906105b6565b6102ba565b6040516101369190610611565b60405180910390f35b60606001805461014e9061065b565b80601f016020809104026020016040519081016040528092919081815260200182805461017a9061065b565b80156101c75780601f1061019c576101008083540402835291602001916101c7565b820191906000526020600020905b8154815290600101906020018083116101aa57829003601f168201915b5050505050905090565b60005481565b600180546101e49061065b565b80601f01602080910402602001604051908101604052809291908181526020018280546102109061065b565b801561025d5780601f106102325761010080835404028352916020019161025d565b820191906000526020600020905b81548152906001019060200180831161024057829003601f168201915b505050505081565b60026020528060005260406000206000915090505481565b60606040518060400160405280600381526020017f4b49540000000000000000000000000000000000000000000000000000000000815250905090565b600081600260003373ffffffffffffffffffffffffffffffffffffffff1673ffffffffffffffffffffffffffffffffffffffff16815260200190815260200160002054101561030857600080fd5b81600260003373ffffffffffffffffffffffffffffffffffffffff1673ffffffffffffffffffffffffffffffffffffffff168152602001908152602001600020600082825461035791906106bc565b9250508190555081600260008573ffffffffffffffffffffffffffffffffffffffff1673ffffffffffffffffffffffffffffffffffffffff16815260200190815260200160002060008282546103ad91906106f0565b9250508190555060008390508073ffffffffffffffffffffffffffffffffffffffff166108fc849081150290604051600060405180830381858888f193505050501580156103ff573d6000803e3d6000fd5b50600191505092915050565b600081519050919050565b600082825260208201905092915050565b60005b8381101561044557808201518184015260208101905061042a565b83811115610454576000848401525b50505050565b6000601f19601f8301169050919050565b60006104768261040b565b6104808185610416565b9350610490818560208601610427565b6104998161045a565b840191505092915050565b600060208201905081810360008301526104be818461046b565b905092915050565b6000819050919050565b6104d9816104c6565b82525050565b60006020820190506104f460008301846104d0565b92915050565b600080fd5b600073ffffffffffffffffffffffffffffffffffffffff82169050919050565b600061052a826104ff565b9050919050565b61053a8161051f565b811461054557600080fd5b50565b60008135905061055781610531565b92915050565b600060208284031215610573576105726104fa565b5b600061058184828501610548565b91505092915050565b610593816104c6565b811461059e57600080fd5b50565b6000813590506105b08161058a565b92915050565b600080604083850312156105cd576105cc6104fa565b5b60006105db85828601610548565b92505060206105ec858286016105a1565b9150509250929050565b60008115159050919050565b61060b816105f6565b82525050565b60006020820190506106266000830184610602565b92915050565b7f4e487b7100000000000000000000000000000000000000000000000000000000600052602260045260246000fd5b6000600282049050600182168061067357607f821691505b602082108114156106875761068661062c565b5b50919050565b7f4e487b7100000000000000000000000000000000000000000000000000000000600052601160045260246000fd5b60006106c7826104c6565b91506106d2836104c6565b9250828210156106e5576106e461068d565b5b828203905092915050565b60006106fb826104c6565b9150610706836104c6565b9250827fffffffffffffffffffffffffffffffffffffffffffffffffffffffffffffffff0382111561073b5761073a61068d565b5b82820190509291505056fea26469706673582212209476d59057edd0057f02f636ab642427bb849625b127701f4f63800a1108747d64736f6c634300080a0033",
  "immutableReferences": {},
  "source": "// SPDX-License-Identifier: MIT\npragma solidity >=0.5.22 <0.9.0;\n\n\ncontract KittuToken {\n\n    //constructor\n    //Set the total number of token\n    //Read the total number of token\n\n    uint public totalSupply;\n    string public tokenName = \"Kittu\";\n    mapping(address => uint) public balanceOf;\n\n   \n    constructor(uint _totalsupply){\n        balanceOf[msg.sender] = totalSupply;\n        totalSupply = _totalsupply;\n    }\n\n    //name of the token\n    function name() public view returns (string memory){\n        return tokenName;\n    }\n\n    //symbole of token\n    function symbol() public pure returns (string memory){\n        return \"KIT\";\n    }\n\n\n    function transfer(address _to, uint256 _value) public returns (bool success) {\n    require(balanceOf[msg.sender] >= _value);\n\n    balanceOf[msg.sender] -= _value;\n    balanceOf[_to] += _value;\n\n    address payable to = payable(_to);\n    to.transfer(_value);\n\n\n    return true;\n    }\n    \n\n    \n\n\n}",
  "sourcePath": "/Users/ritiksrivastava/Documents/programming/Blockchain/Ethereumtoken/contracts/Kittutoken.sol",
  "compiler": {
    "name": "solc",
    "version": "0.8.10+commit.fc410830.Emscripten.clang"
  },
  "schemaVersion": "3.4.3",
  "updatedAt": "2021-12-27T11:14:50.725Z",
  "networkType": "ethereum",
  "devdoc": {
    "kind": "dev",
    "methods": {},
    "version": 1
  },
  "userdoc": {
    "kind": "user",
    "methods": {},
    "version": 1
  }
}