{
  "contractName": "KittuTokenSale",
  "abi": [
    {
      "inputs": [
        {
          "internalType": "uint256",
          "name": "_tokenPrice",
          "type": "uint256"
        },
        {
          "internalType": "contract KittuToken",
          "name": "_tokenContract",
          "type": "address"
        }
      ],
      "stateMutability": "nonpayable",
      "type": "constructor"
    },
    {
      "inputs": [],
      "name": "admin",
      "outputs": [
        {
          "internalType": "address",
          "name": "",
          "type": "address"
        }
      ],
      "stateMutability": "view",
      "type": "function",
      "constant": true
    },
    {
      "inputs": [],
      "name": "tokenContract",
      "outputs": [
        {
          "internalType": "contract KittuToken",
          "name": "",
          "type": "address"
        }
      ],
      "stateMutability": "view",
      "type": "function",
      "constant": true
    },
    {
      "inputs": [],
      "name": "tokenPrice",
      "outputs": [
        {
          "internalType": "uint256",
          "name": "",
          "type": "uint256"
        }
      ],
      "stateMutability": "view",
      "type": "function",
      "constant": true
    },
    {
      "inputs": [],
      "name": "tokensSold",
      "outputs": [
        {
          "internalType": "uint256",
          "name": "",
          "type": "uint256"
        }
      ],
      "stateMutability": "view",
      "type": "function",
      "constant": true
    }
  ],
  "bytecode": "0x608060405234801561001057600080fd5b5060405161041a38038061041a8339818101604052810190610032919061016c565b336000806101000a81548173ffffffffffffffffffffffffffffffffffffffff021916908373ffffffffffffffffffffffffffffffffffffffff1602179055508160028190555080600160006101000a81548173ffffffffffffffffffffffffffffffffffffffff021916908373ffffffffffffffffffffffffffffffffffffffff16021790555050506101ac565b600080fd5b6000819050919050565b6100d9816100c6565b81146100e457600080fd5b50565b6000815190506100f6816100d0565b92915050565b600073ffffffffffffffffffffffffffffffffffffffff82169050919050565b6000610127826100fc565b9050919050565b60006101398261011c565b9050919050565b6101498161012e565b811461015457600080fd5b50565b60008151905061016681610140565b92915050565b60008060408385031215610183576101826100c1565b5b6000610191858286016100e7565b92505060206101a285828601610157565b9150509250929050565b61025f806101bb6000396000f3fe608060405234801561001057600080fd5b506004361061004c5760003560e01c8063518ab2a81461005157806355a373d61461006f5780637ff9b5961461008d578063f851a440146100ab575b600080fd5b6100596100c9565b6040516100669190610138565b60405180910390f35b6100776100cf565b60405161008491906101d2565b60405180910390f35b6100956100f5565b6040516100a29190610138565b60405180910390f35b6100b36100fb565b6040516100c0919061020e565b60405180910390f35b60035481565b600160009054906101000a900473ffffffffffffffffffffffffffffffffffffffff1681565b60025481565b60008054906101000a900473ffffffffffffffffffffffffffffffffffffffff1681565b6000819050919050565b6101328161011f565b82525050565b600060208201905061014d6000830184610129565b92915050565b600073ffffffffffffffffffffffffffffffffffffffff82169050919050565b6000819050919050565b600061019861019361018e84610153565b610173565b610153565b9050919050565b60006101aa8261017d565b9050919050565b60006101bc8261019f565b9050919050565b6101cc816101b1565b82525050565b60006020820190506101e760008301846101c3565b92915050565b60006101f882610153565b9050919050565b610208816101ed565b82525050565b600060208201905061022360008301846101ff565b9291505056fea26469706673582212206844e4ae8636eada7bf7aad6f30c1ab401aaab1942e91f91ff6e7b61fc51eca464736f6c634300080a0033",
  "immutableReferences": {},
  "source": "// SPDX-License-Identifier: MIT\npragma solidity >=0.5.22 <0.9.0;\nimport './Kittutoken.sol';\n\ncontract KittuTokenSale {\n    \n    address public admin;\n    KittuToken public tokenContract;\n    uint256 public tokenPrice;\n    uint256 public tokensSold;\n\n    constructor(uint256 _tokenPrice, KittuToken _tokenContract){\n        //assign a admin\n        admin = msg.sender;\n\n        //token price \n        tokenPrice = _tokenPrice;\n\n        //token contract\n        tokenContract = _tokenContract;\n    }\n\n}",
  "sourcePath": "/Users/ritiksrivastava/Documents/programming/Blockchain/Ethereumtoken/contracts/Kittutokensale.sol",
  "compiler": {
    "name": "solc",
    "version": "0.8.10+commit.fc410830.Emscripten.clang"
  },
  "schemaVersion": "3.4.3",
  "updatedAt": "2021-12-28T22:32:08.290Z",
  "networkType": "ethereum",
  "devdoc": {
    "kind": "dev",
    "methods": {},
    "version": 1
  },
  "userdoc": {
    "kind": "user",
    "methods": {},
    "version": 1
  }
}